:1000000090C00000AAC00000A8C00000A6C0000068
:10001000A4C00000A2C00000A0C000009EC000005C
:100020009CC000009AC000000C94CC0C96C000004C
:1000300094C0000092C0000090C000008EC000007C
:100040008CC000008AC0000088C0000086C000008C
:1000500084C0000082C0000080C000007EC000009C
:100060007CC000007AC0000078C0000076C00000AC
:1000700074C0000072C0000070C000006EC00000BC
:100080006CC000006AC0000068C0000066C00000CC
:1000900064C0000062C0000060C000005EC00000DC
:1000A0005CC000005AC0000058C0000012010002ED
:1000B000FF0000400912D2BA00010102DC0109026E
:1000C000200001010080FA0904000002FFFFFF0088
:1000D00007050302400000070584024000000403F6
:1000E00009042A0367007200650067006F00720050
:1000F0007900400070006F007400650061007500B9
:10010000730061002E0063006F006D000000120399
:1001100058004C0069006E006B005500530042000F
:10012000000011241FBECFEFDAE0DEBFCDBF11E02B
:10013000A0E0B1E0EAE8FEE102C005900D92A03037
:10014000B107D9F711E0A0E0B1E001C01D92AE3CCB
:10015000B107E1F72DD10C94430F52CF0F931F93AA
:1001600083E060E842E30E94DF0B082F84E061E84F
:1001700042E30E94DF0B10E090E00823192300FF08
:100180001FC08091E8008E778093E80060E070E007
:1001900040E951E088B1805888B920E030E0CA01D8
:1001A0000197F1F72F5F3F4F81E0243F3807B9F700
:1001B0006F5F7F4F6530710569F71F910F9108954B
:1001C00040E951E088B1805888B920E030E0CA01A8
:1001D0000197F1F72F5F3F4F87E220313807B9F7DA
:1001E000F1CF8091C501843009F008958093E90032
:1001F0008091EE0087FD5CC083E08093E9008091F0
:10020000E80082FFF2CF81E491E060E470E040E03A
:1002100050E00E94110B8091E8008B778093E800FA
:10022000E1E4F1E08081982F9E7E95B9982F90713E
:10023000990F990F879588278795980F91BB8D9A6D
:1002400010928500109284004B9910C08091840018
:100250009091850088509D43B8F388B1805888B943
:1002600010928500109284004B9BF0CF8D981092D5
:1002700085001092840089B18F70883091F480914C
:1002800084009091850088509D43A8F388B18058E0
:1002900088B9109285001092840089B18F708830DF
:1002A00071F3319681E0E138F80709F0BBCF08958A
:1002B0008091E80080FFA0CF8091E80085FF9CCF6F
:1002C0008091C601882309F497CF2EE31092850010
:1002D000109284004B990BC080918400909185000E
:1002E00084589E41B8F388B1805888B9EFCF89B15E
:1002F0008D9A10928500109284004B9B10C08091C3
:1003000084009091850088509D43B8F388B180584F
:1003100088B910928500109284004B99F0CF89B172
:100320008D9810928500109284004B9910C0809196
:1003300084009091850088509D43B8F388B180581F
:1003400088B910928500109284004B9BF0CF89B140
:100350008D9A10928500109284004B9B10C0809162
:1003600084009091850088509D43B8F388B18058EF
:1003700088B910928500109284004B99F0CF8D9827
:10038000215008F0A3CF81E891E060E470E040E004
:1003900050E00E94780B882329F085B185B98BB194
:1003A0008BB947988091E8008E778093E80024CF3E
:1003B00084B7877F84BF88E10FB6F894809360008C
:1003C000109260000FBE80E090E020E80FB6F89435
:1003D00020936100809361000FBE8FEF84B980B3DA
:1003E000806E80BB8AB1807F8AB985B7806185BF06
:1003F0003F9A0E94AF0C7894809181008560809331
:1004000081000E942D0FEDDEFCCF0F931F93DF9331
:10041000CF93CDB7DEB7C054D0400FB6F894DEBF4F
:100420000FBECDBF8091C701853009F426C186304B
:1004300058F1873009F4DDC08730D0F1883009F4F5
:10044000BBC0893049F58091C601803C29F5E0E0C8
:10045000F1E080E4DF011D928A95E9F78091E800E0
:10046000877F8093E80010928500109284004B995A
:10047000C8C1809184009091850084589E41B8F352
:1004800088B1805888B9EFCF823009F4CDC084306C
:1004900069F1813009F41FC1C05CDF4F0FB6F894D9
:1004A000DEBF0FBECDBFCF91DF911F910F91089599
:1004B0008091C601803C81F78091E800877F80931E
:1004C000E80010928500109284004B9904C280913C
:1004D00084009091850084589E41B8F388B180587B
:1004E00088B91092850010928400EFCF8091C601E8
:1004F000803491F68091E800877F8093E8006091D6
:10050000CC017091CD018E010F5F1F4FC8019DD7A7
:100510004091CC015091CD014115510509F4D9C14B
:1005200020E0E0E0F0E0E00FF11F8081982F9E7E58
:1005300095B9982F9071990F990F8795882787956E
:10054000980F91BB8D9A10928500109284004B9960
:1005500010C0809184009091850088509D43B8F32D
:1005600088B1805888B910928500109284004B9B06
:10057000F0CF8D98109285001092840089B18F7011
:10058000883091F4809184009091850088509D433B
:10059000A8F388B1805888B9109285001092840021
:1005A00089B18F70883071F32F5FE22FF0E0E4178C
:1005B000F50708F4B8CF8DC18091C601803C09F0E1
:1005C0006BCF8091E800877F8093E80000E011E026
:1005D000C80160E470E098D68091E8008E7780933F
:1005E000E8000E94190C80E4F80111928A95E9F75D
:1005F00053CF8091C601803C09F04ECF8091E80036
:10060000877F8093E80080914001882309F42BC202
:100610008093F100109240018091E8008E778093E2
:10062000E8000E94190C38CF8091C601803C09F087
:1006300033CF6091CC017091CD018091E800877F2C
:100640008093E8006115710509F467C350E08E01DD
:100650000F5F1F4FE0E0F0E01092850010928400E1
:100660004B9967C0809184009091850084589E4189
:10067000B8F388B1805888B9EFCF8091C601803433
:1006800009F00ACF8091E800877F8093E80090917D
:10069000C801892F8E7E85B9892F8071880F880FB8
:1006A000979599279795890F81BB8D9A1092850010
:1006B000109284004B9970C28091840090918500C3
:1006C00088509D43B8F388B1805888B9109285004E
:1006D00010928400EFCF8091C601803C09F0DCCEFF
:1006E0008091E800877F8093E8009091C801892F6E
:1006F0008E7E85B9892F8071880F880F97959927ED
:100700009795890F81BB8D9A109285001092840075
:100710004B993BC1809184009091850088509D4306
:10072000B8F388B1805888B910928500109284007F
:10073000EFCF49B18D9A10928500109284004B9BA7
:1007400010C0809184009091850088509D43B8F33B
:1007500088B1805888B910928500109284004B9916
:10076000F0CF39B18D9810928500109284004B998A
:1007700010C0809184009091850088509D43B8F30B
:1007800088B1805888B910928500109284004B9BE4
:10079000F0CF29B18D9A10928500109284004B9B66
:1007A00010C0809184009091850088509D43B8F3DB
:1007B00088B1805888B910928500109284004B99B6
:1007C000F0CF8D9827704295440F440F407C242B26
:1007D000330F330F330F3873232BE00FF11F2083B8
:1007E0005F5FE52FF0E0E617F70708F435CFC801A3
:1007F0008BD58091E8008E778093E8000E94190CD9
:100800004BCE39B18D9A10928500109284004B9B8B
:1008100010C0809184009091850088509D43B8F36A
:1008200088B1805888B910928500109284004B9945
:10083000F0CF29B18D9810928500109284004B99C9
:1008400010C0809184009091850088509D43B8F33A
:1008500088B1805888B910928500109284004B9B13
:10086000F0CF49B18D9A10928500109284004B9B75
:1008700010C0809184009091850088509D43B8F30A
:1008800088B1805888B910928500109284004B99E5
:10089000F0CF8D98842F87703295330F330F307CD3
:1008A000832B220F220F220F2873822B8083882311
:1008B00031F0319671E0E034F70709F0D4CD80E0F3
:1008C00091E060E470E020D58091E8008E7780931D
:1008D000E800AFD7E1CD49B18D9A10928500109212
:1008E00084004B9B0FC080918400909185008850BC
:1008F0009D43B8F388B1805888B910928500109252
:100900008400EFCF39B18D98109285001092840049
:100910004B990FC0809184009091850088509D4331
:10092000B8F388B1805888B910928500109284007D
:10093000EFCF29B18D9A10928500109284004B9BC5
:100940000FC0809184009091850088509D43B8F33A
:1009500088B1805888B91092850010928400EFCF3A
:100960008D9827704295440F440F407C242B330F01
:10097000330F330F3873232B2093F1008091E8005D
:100980008E778093E80055D787CD8D98109285009B
:100990001092840089B18F70883091F48091840026
:1009A0009091850088509D43A8F388B1805888B9FC
:1009B0001092850010928400EDCF88B1805888B9DC
:1009C00010928500109284004B9908C08091840099
:1009D0009091850084589E41B8F3EFCF49B18D9A2C
:1009E00010928500109284004B9B0FC08091840070
:1009F0009091850088509D43B8F388B1805888B99C
:100A00001092850010928400EFCF39B18D9810922A
:100A10008500109284004B990FC0809184009091C2
:100A2000850088509D43B8F388B1805888B91092EA
:100A3000850010928400EFCF29B18D9A1092850025
:100A4000109284004B9B8CCF809184009091850004
:100A500088509D43B8F388B1805888B910928500BA
:100A600010928400EFCF80E485B981BB8D9A1092FB
:100A70008500109284004B990FC080918400909162
:100A8000850088509D43B8F388B1805888B910928A
:100A9000850010928400EFCF8D98109285001092FF
:100AA000840089B18F70883091F480918400909196
:100AB000850088509D43A8F388B1805888B910926A
:100AC000850010928400EDCF88B1805888B91092CB
:100AD0008500109284004B9908C080918400909109
:100AE000850084589E41B8F3EFCF49B18D9A10929A
:100AF0008500109284004B9B0FC0809184009091E0
:100B0000850088509D43B8F388B1805888B9109209
:100B1000850010928400EFCF39B18D981092850036
:100B2000109284004B990FC08091840090918500B1
:100B300088509D43B8F388B1805888B910928500D9
:100B400010928400EFCF29B18D9A109285001092F7
:100B500084004B9B0FC08091840090918500885049
:100B60009D43B8F388B1805888B9109285001092DF
:100B70008400EFCF8D9827704295440F440F407C3E
:100B8000242B330F330F330F3873232B2436E9F024
:100B90008FEF8093F10040CD8D98109285001092D8
:100BA000840089B18F70883009F093CE80918400E1
:100BB0009091850088509D43A0F388B1805888B9F2
:100BC0001092850010928400ECCF82E485B980E415
:100BD00081BB8D9A10928500109284004B990FC0B2
:100BE000809184009091850088509D43B8F388B12E
:100BF000805888B91092850010928400EFCF8D98AC
:100C0000109285001092840089B18F70883091F421
:100C1000809184009091850088509D43A8F388B10D
:100C2000805888B91092850010928400EDCF88B169
:100C3000805888B910928500109284004B9908C0A2
:100C4000809184009091850084589E41B8F3EFCF45
:100C500049B18D9A10928500109284004B9B0FC071
:100C6000809184009091850088509D43B8F388B1AD
:100C7000805888B91092850010928400EFCF39B166
:100C80008D9810928500109284004B990FC080912E
:100C900084009091850088509D43B8F388B18058B6
:100CA00088B91092850010928400EFCF29B18D9AF7
:100CB00010928500109284004B9B0FC0809184009D
:100CC0009091850088509D43B8F388B1805888B9C9
:100CD0001092850010928400EFCF8D982770429576
:100CE000440F440F407C242B330F330F330F3873E2
:100CF000232B2F3609F090CC10928500109284009F
:100D00004B990FC0809184009091850084589E413A
:100D1000B8F388B1805888B9EFCF8E010F5F1F4FAD
:100D200066CD49B18D9A10928500109284004B9B3C
:100D30000FC0809184009091850088509D43B8F346
:100D400088B1805888B91092850010928400EFCF46
:100D500039B18D9810928500109284004B990FC084
:100D6000809184009091850088509D43B8F388B1AC
:100D7000805888B91092850010928400EFCF29B175
:100D800027704295440F440F407C242B330F330FC0
:100D9000330F3873232B8D9A1092850010928400A4
:100DA0004B9B0FC0809184009091850088509D439B
:100DB000B8F388B1805888B91092850010928400E9
:100DC000EFCF8D98213031F02093F10025CC88B100
:100DD000805888B910928500109284004B9908C001
:100DE000809184009091850084589E41B8F3EFCFA4
:100DF00049B18D9A10928500109284004B9B0FC0D0
:100E0000809184009091850088509D43B8F388B10B
:100E1000805888B91092850010928400EFCF39B1C4
:100E20008D9810928500109284004B990FC080918C
:100E300084009091850088509D43B8F388B1805814
:100E400088B91092850010928400EFCF29B18D9A55
:100E500010928500109284004B9B0FC080918400FB
:100E60009091850088509D43B8F388B1805888B927
:100E70001092850010928400EFCF8D9827704295D4
:100E8000440F440F407C242B330F330F330F387340
:100E9000232B20930001E1E0F1E050E462E455B936
:100EA00051BB8D9A10928500109284004B990FC00F
:100EB000809184009091850088509D43B8F388B15B
:100EC000805888B91092850010928400EFCF8D98D9
:100ED000109285001092840089B18F70883091F44F
:100EE000809184009091850088509D43A8F388B13B
:100EF000805888B91092850010928400EDCF88B197
:100F0000805888B910928500109284004B9908C0CF
:100F1000809184009091850084589E41B8F3EFCF72
:100F200049B18D9A10928500109284004B9B0FC09E
:100F3000809184009091850088509D43B8F388B1DA
:100F4000805888B91092850010928400EFCF39B193
:100F50008D9810928500109284004B990FC080915B
:100F600084009091850088509D43B8F388B18058E3
:100F700088B91092850010928400EFCF29B18D9A24
:100F800010928500109284004B9B0FC080918400CA
:100F90009091850088509D43B8F388B1805888B9F6
:100FA0001092850010928400EFCF8D9827704295A3
:100FB000440F440F407C242B330F330F330F38730F
:100FC000232B243609F062C165B951BB8D9A10926A
:100FD0008500109284004B990FC0809184009091FD
:100FE000850088509D43B8F388B1805888B9109225
:100FF000850010928400EFCF8D981092850010929A
:10100000840089B18F70883091F480918400909130
:10101000850088509D43A8F388B1805888B9109204
:10102000850010928400EDCF88B1805888B9109265
:101030008500109284004B9908C0809184009091A3
:10104000850084589E41B8F3EFCF49B18D9A109234
:101050008500109284004B9B0FC08091840090917A
:10106000850088509D43B8F388B1805888B91092A4
:10107000850010928400EFCF39B18D9810928500D1
:10108000109284004B990FC080918400909185004C
:1010900088509D43B8F388B1805888B91092850074
:1010A00010928400EFCF29B18D9A10928500109292
:1010B00084004B9B0FC080918400909185008850E4
:1010C0009D43B8F388B1805888B91092850010927A
:1010D0008400EFCF8D9827704295440F440F407CD9
:1010E000242B330F330F330F3873232B2F3609F094
:1010F000D6CE10928500109284004B990BC080913F
:1011000084009091850084589E41B8F388B180583E
:1011100088B9EFCF49B18D9A109285001092840062
:101120004B9B0FC0809184009091850088509D4317
:10113000B8F388B1805888B9109285001092840065
:10114000EFCF39B18D9810928500109284004B99A1
:101150000FC0809184009091850088509D43B8F322
:1011600088B1805888B91092850010928400EFCF22
:1011700029B127704295440F440F407C242B330F34
:10118000330F330F3873232B8D9A109285001092F2
:1011900084004B9B0FC08091840090918500885003
:1011A0009D43B8F388B1805888B910928500109299
:1011B0008400EFCF8D98213009F06CC0109285002B
:1011C000109284004B990BC080918400909185000F
:1011D00084589E41B8F388B1805888B9EFCF49B19F
:1011E0008D9A10928500109284004B9B0FC08091C5
:1011F00084009091850088509D43B8F388B1805851
:1012000088B91092850010928400EFCF39B18D9883
:1012100010928500109284004B990FC08091840039
:101220009091850088509D43B8F388B1805888B963
:101230001092850010928400EFCF29B18D9A109200
:101240008500109284004B9B0FC080918400909188
:10125000850088509D43B8F388B1805888B91092B2
:10126000850010928400EFCF8D9827704295440F2F
:10127000440F407C242B330F330F330F3873232B51
:101280002193B1E0E034FB0709F009CE8EEF8093A3
:10129000F100C2C920934001F9CFDA019230F1F098
:1012A000933091F0913041F0E0E0F0E020E030E068
:1012B000ED93FC93C9010895ECEAF0E022E130E0FF
:1012C000ED93FC93C9010895813081F08130A0F441
:1012D000EEEDF0E08491282F30E0EACFEEEBF0E085
:1012E00020E230E0ED93FC93C9010895E2EEF0E0D6
:1012F0008491282F30E0DCCF8230B1F6EEE0F1E0CF
:101300008491282F30E0D4CF9C018091CC01909122
:10131000CD018617970708F075C0BC01F90190E070
:1013200061157105D9F1992309F47AC08091C5013D
:10133000882309F471C0853009F470C08091E800F9
:1013400083FD5EC08091E80082FD4CC08091E80082
:1013500080FFECCF8091F3009091F200582F40E095
:10136000292F30E0242B352B0AC081918093F10086
:10137000615070402F5F3F4F6115710519F02034A7
:10138000310598F390E02034310551F18091E80067
:101390008E778093E8006115710529F6992311F184
:1013A0008091C5018823C1F18530C1F18091E800A9
:1013B00083FD26C08091E80082FD14C08091E80082
:1013C00080FFEECF8091F3009091F200B82FA0E063
:1013D000292F30E02A2B3B2B90E020343105B1F649
:1013E00091E0D4CF8091E80082FD2DC08091C501AD
:1013F000882391F0853091F08091E80083FFF2CF4F
:1014000081E008956115710509F088CF8091E800A9
:101410008E778093E80082CF82E0089583E008957C
:101420008091C5018823C1F38530C1F38091E80024
:1014300083FDE6CF8091E80082FDD4CF8091E80063
:1014400080FFEECF87CF80E008956115710539F1F7
:10145000FC018091C501882371F0853079F180917C
:10146000E80083FD37C08091E80082FD07C08091CD
:10147000C501882391F782E0089531962091F30009
:101480008091F200322F20E090E0822B932B892B69
:10149000B9F08091F10080836150704071F78091C4
:1014A000E8008B778093E8008091E80080FD14C00D
:1014B0008091C5018823F9F28530B1F783E0089562
:1014C0008091E8008B778093E8006115710509F041
:1014D000C0CFEACF81E0089580E008959C0180911B
:1014E000CC019091CD018617970708F077C0BC0119
:1014F000F90190E06115710509F43CC0992309F4E4
:101500007BC08091C501882309F472C0853009F43D
:1015100071C08091E80083FD5FC08091E80082FD8A
:101520004DC08091E80080FFECCF8091F300909156
:10153000F200582F40E0292F30E0242B352B0BC030
:1015400084918093F1003196615070402F5F3F4F3E
:101550006115710519F02034310590F390E02034C5
:10156000310551F18091E8008E778093E800611594
:10157000710521F6992311F18091C5018823C1F1EC
:101580008530C1F18091E80083FD26C08091E8009C
:1015900082FD14C08091E80080FFEECF8091F300BF
:1015A0009091F200B82FA0E0292F30E02A2B3B2B9E
:1015B00090E020343105B1F691E0D4CF8091E8007D
:1015C00082FD2DC08091C501882391F0853091F076
:1015D0008091E80083FFF2CF81E0089561157105E5
:1015E00009F086CF8091E8008E778093E80080CF65
:1015F00082E0089583E008958091C5018823C1F3B6
:101600008530C1F38091E80083FDE6CF8091E8004A
:1016100082FDD4CF8091E80080FFEECF86CF80E0BE
:101620000895BF92CF92DF92EF92FF920F931F9394
:10163000CF93DF93182F092FEB017A011CD1B82E1D
:10164000882309F044C0812F902F9C018901E11467
:10165000F10439F0F70180819181C81BD90B080F83
:10166000191F2097A1F1E114F10449F01FC08091E6
:10167000F100F80181938F012197209741F180912A
:10168000E80085FDF4CF8091E8008B778093E80037
:10169000E4D3F1D0882389F3DF91CF911F910F918B
:1016A000FF90EF90DF90CF90BF900895CC24DD2481
:1016B0008091E80085FF0DC08091F100F8018193D1
:1016C0008F010894C11CD11CCC16DD0689F78B2D27
:1016D000E3CF8091E8008B778093E800BED3F701D9
:1016E000808191818C0D9D1D9183808385E0D4CF75
:1016F000BF92CF92DF92EF92FF920F931F93CF93FF
:10170000DF93182F092FEB017A01B5D0B82E88236B
:1017100009F044C0812F902F9C018901E114F1044C
:1017200039F0F70180819181C81BD90B080F191F6F
:101730002097A1F1E114F10449F01FC0F801819153
:101740008F018093F1002197209741F18091E8006B
:1017500085FDF4CF8091E8008E778093E8007DD3FB
:101760008AD0882389F3DF91CF911F910F91FF9049
:10177000EF90DF90CF90BF900895CC24DD2480912E
:10178000E80085FF0DC0F80181918F018093F10081
:101790000894C11CD11CCC16DD0689F78B2DE3CF34
:1017A0008091E8008E778093E80057D3F70180811D
:1017B00091818C0D9D1D9183808385E0D4CF782FFE
:1017C000873080F5982F24C05091EC002091ED00D7
:1017D0003091F00021FF19C08091EB008E7F809343
:1017E000EB008091ED008D7F8093ED008091EB0008
:1017F00081608093EB005093EC002093ED003093D8
:10180000F0008091EE0087FF12C09F5F973050F488
:10181000892F8F708093E9009717B1F6562F242FE8
:1018200030E0D8CF7F707093E90081E0089580E0C8
:1018300008958091C60188234CF08091E80080FDD6
:101840000EC08091C5018823C1F708958091E800FA
:1018500082FD0BC08091C5018823C1F70895809156
:10186000E8008E778093E80008958091E8008B77F8
:101870008093E80008952091E4003091E50044E66B
:101880008091EC0080FF1BC08091E80080FD1BC0B0
:101890008091C5018823C9F08530C9F08091EB00A3
:1018A00085FD17C08091E4009091E5002817390765
:1018B00039F341509C014F3F19F784E0089580911E
:1018C000E80082FFE5CF80E0089582E0089583E09C
:1018D000089581E00895EF92FF920F931F934FD0E8
:1018E00056D008ED10E0F80180818F7780838081E9
:1018F0008068808380818F7D808319BC1092C501B0
:101900001092C1011092C3011092C20180EEE82E24
:10191000F12CF70180818B7F8083F80180818160C9
:10192000808380E060E042E34ADFE1EEF0E0808126
:101930008E7F8083E2EEF0E0808181608083808111
:1019400088608083F70180818E7F8083F8018081A9
:10195000806180831F910F91FF90EF900895E8EDD3
:10196000F0E080818F7E8083E7EDF0E08081816010
:10197000808384E082BF81E08093C401ACCFE8ED36
:10198000F0E080818E7F80831092E20008951092B3
:10199000DA001092E10008951F920F920FB60F9295
:1019A00011242F933F934F935F936F937F938F9364
:1019B0009F93AF93BF93EF93FF938091E10082FFDA
:1019C00004C08091E20082FD8CC08091DA0080FF2B
:1019D00004C08091D80080FD6FC08091E10080FF3D
:1019E00004C08091E20080FD83C08091E10084FF0B
:1019F0002CC08091E20084FF28C080E189BD82E193
:101A000089BD09B400FEFDCF8091D8008F7D809301
:101A1000D8008091E1008F7E8093E1008091E20008
:101A20008F7E8093E2008091E20081608093E200EB
:101A30008091C101882309F070C08091E30087FD87
:101A400075C081E08093C50107D28091E10083FFDA
:101A500022C08091E20083FF1EC08091E100877F59
:101A60008093E10082E08093C5011092C1018091D2
:101A7000E1008E7F8093E1008091E2008E7F809371
:101A8000E2008091E20080618093E20080E060E00B
:101A900042E395DEE1D1FF91EF91BF91AF919F912C
:101AA0008F917F916F915F914F913F912F910F9007
:101AB0000FBE0F901F9018958091DA008E7F809353
:101AC000DA008091D90080FF2CC080E189BD82E1DD
:101AD00089BD09B400FEFDCF81E08093C501BCD172
:101AE0007CCF8091E1008B7F8093E100B5D16DCFF9
:101AF0008091E2008E7F8093E2008091E20080611D
:101B00008093E2008091D80080628093D80019BC55
:101B100085E08093C501A0D168CF84E08093C501A2
:101B200093CF19BC1092C50197D157CF83E08ACFCC
:101B30001F93DF93CF93CDB7DEB7AC970FB6F89472
:101B4000DEBF0FBECDBF8091F1008093C6018091B2
:101B5000F1008093C7018091F1008093C8018091CA
:101B6000F1008093C9018091F1008093CA018091B6
:101B7000F1008093CB018091F1008093CC018091A2
:101B8000F1008093CD010E9405028091E80083FF5F
:101B900012C08091C6019091C701953009F45EC0D2
:101BA000963008F1983009F4E5C0993009F4C7C0BF
:101BB000963009F475C08091E80083FF0AC08091D7
:101BC000E800877F8093E8008091EB00806280933B
:101BD000EB00AC960FB6F894DEBF0FBECDBFCF9131
:101BE000DF911F910895913029F0913008F47DC064
:101BF000933009F7882309F4D0C08230E1F6809150
:101C0000C801882311F52091CA012F70A1F22093F9
:101C1000E9008091EB0080FF18C0933009F414C1F3
:101C20008091EB0080618093EB0081E090E002C046
:101C3000880F991F2A95E2F78093EA001092EA0034
:101C40008091EB0088608093EB001092E900809116
:101C5000E800877F8093E800ECDDADCF882309F0B2
:101C6000AACF1091C8011F778091E3008078812B63
:101C70008093E3008091E800877F8093E800D9DDBE
:101C80008091E80080FFFCCF8091E3008068809322
:101C9000E300112309F08EC082E08093C5018BCF51
:101CA0008058823008F087CF8091C8019091C90197
:101CB00023E08C3D920709F488C06091CA01AE010F
:101CC0004F5F5F4FEADABC01009709F474CF80914F
:101CD000E800877F8093E80089819A81FFDB80910B
:101CE000E8008B778093E80066CF803809F464C001
:101CF000823809F060CF8091CA018F708093E9002B
:101D00008091EB0090E096958795929582958F70E3
:101D100089279F708927982F91701092E9008091F0
:101D2000E800877F8093E8009093F1001092F10023
:101D30008091E8008E778093E8007BDD3CCF88239C
:101D400009F039CF9091C801923008F034CF8091DA
:101D5000E800877F8093E8009093C1016ADD80915D
:101D6000C101882309F468C084E08093C5010E9402
:101D7000AE0021CF803809F01ECF8091E800877F28
:101D80008093E8008091C1018093F1008091E80088
:101D90008E778093E8004DDD0ECF8091C8018130B1
:101DA00009F009CF1092C301933009F04ECF809310
:101DB000C3014BCF83E071CF9091C2018091C301E9
:101DC000882309F4ACCF9260AACF83E08C838AE2A7
:101DD0008B836FB7F894DE0115964EE020E030E07B
:101DE00051E209C090E0C7968D939D932F5F3F4FBE
:101DF0002431310581F0E42FF0E0509357008491B5
:101E000020FF03C082958F704F5F8F708A3050F72C
:101E100090E0C096E9CF6FBF8091E800877F809304
:101E2000E800CE0103966AE270E06EDA8091E80085
:101E30008B778093E800BFCE8091E30087FD0AC0D6
:101E400081E08093C50193CF8091EB008062809305
:101E5000EB00FBCE84E0F5CF08951F938091C50180
:101E6000882369F01091E9008091EC001092E9005C
:101E70008091E80083FD05C01F701093E9001F9159
:0A1E8000089556DEF9CFF894FFCF65
:00000001FF
